:1000000071C100000DC400008CC100008AC1000055
:1000100088C1000086C1000084C1000082C10000C8
:1000200080C100007EC100007CC100007AC10000D8
:1000300078C1000076C1000074C1000072C10000E8
:1000400070C100006EC100006CC100006AC10000F8
:100050003FC500009AC4000064C1000062C10000F6
:1000600060C100005AC600008EC600005AC10000E0
:1000700058C1000056C1000054C1000052C1000028
:1000800050C100004EC100004CC100004AC1000038
:1000900048C1000046C1000044C1000042C1000048
:1000A00040C100003EC100003CC100003AC1000058
:1000B00038C1000036C1000034C1000032C1000068
:1000C00030C100002EC100002CC100002AC1000078
:1000D00028C1000026C1000024C1000022C1000088
:1000E00020C100000000C1C081C1400101C3C003A4
:1000F000800241C201C6C006800741C70005C1C5D4
:1001000081C4400401CCC00C800D41CD000FC1CF93
:1001100081CE400E000AC1CA81CB400B01C9C00983
:10012000800841C801D8C018801941D9001BC1DB23
:1001300081DA401A001EC1DE81DF401F01DDC01DD3
:10014000801C41DC0014C1D481D5401501D7C017F3
:10015000801641D601D2C012801341D30011C1D103
:1001600081D0401001F0C030803141F10033C1F343
:1001700081F240320036C1F681F7403701F5C035D3
:10018000803441F4003CC1FC81FD403D01FFC03F93
:10019000803E41FE01FAC03A803B41FB0039C1F983
:1001A00081F840380028C1E881E9402901EBC02BE3
:1001B000802A41EA01EEC02E802F41EF002DC1EDD3
:1001C00081EC402C01E4C024802541E50027C1E7F3
:1001D00081E640260022C1E281E3402301E1C02103
:1001E000802041E001A0C060806141A10063C1A303
:1001F00081A240620066C1A681A7406701A5C065D3
:10020000806441A4006CC1AC81AD406D01AFC06F92
:10021000806E41AE01AAC06A806B41AB0069C1A982
:1002200081A840680078C1B881B9407901BBC07B22
:10023000807A41BA01BEC07E807F41BF007DC1BDD2
:1002400081BC407C01B4C074807541B50077C1B7F2
:1002500081B640760072C1B281B3407301B1C07102
:10026000807041B00050C190819140510193C053C2
:10027000805241920196C056805741970055C195D2
:1002800081944054019CC05C805D419D005FC19F92
:10029000819E405E005AC19A819B405B0199C05982
:1002A000805841980188C04880494189004BC18BE2
:1002B000818A404A004EC18E818F404F018DC04DD2
:1002C000804C418C0044C184818540450187C047F2
:1002D000804641860182C042804341830041C18102
:1002E0008180404011241FBECFEFD1E2DEBFCDBFE1
:1002F00000E00CBF12E0A0E0B2E0ECE3FEE000E0C2
:100300000BBF02C007900D92AC30B107D9F711E1D5
:10031000ACE0B2E001C01D92A43FB107E1F73FD2CB
:100320008BC56ECECF93DF93CDB7DEB78DE092E075
:100330009093AE118093AD118DED99E09093B01133
:100340008093AF118091AF119091B01140ED57E0C3
:1003500060E070E06AD5DF91CF910895CF93DF938D
:1003600000D0CDB7DEB716D4982F81E0992309F4D9
:1003700080E0882309F473C01CD489838981882F85
:1003800090E08334910509F43EC08C34910509F066
:1003900064C08091B4119091B51107969595879599
:1003A000959587959595879504969B838A838091EB
:1003B000AD119091AE112A813B81B90138D4282F1B
:1003C00030E08A819B8128173907A9F48091AD110B
:1003D0009091AE110196FC0180818E3461F4809180
:1003E000AD119091AE112A813B81B9015DD1882375
:1003F00011F081E001C080E0882319F0F1D035D000
:100400002EC040D02CC06BE070E082EB91E10FD4A5
:10041000882F90E08B30910581F48091B311863460
:1004200061F46BE070E082EB91E13ED1882329F02A
:10043000F6D0882311F081E001C080E0882359F0D4
:10044000E2D181E08093B1118091B8119091B911FE
:1004500016D30BD004C016D002C0C5D300000F9035
:100460000F900F90DF91CF910895CF93DF93CDB789
:10047000DEB7809102029091030263E02AD4DF91FB
:10048000CF910895CF93DF93CDB7DEB7809100026F
:100490009091010263E01DD4DF91CF910895CF9335
:1004A000DF931F92CDB7DEB789839091BA1181E0B7
:1004B000992309F480E0882341F081E09981992310
:1004C00009F080E08093B11103C081E08093B11105
:1004D0000F90DF91CF910895CF93DF931F921F92DA
:1004E000CDB7DEB79A8389838091B111882339F023
:1004F00089819A810DD0882311F081E001C080E0CC
:10050000882309F0D0D20F900F90DF91CF910895FA
:10051000CF93DF931F921F92CDB7DEB79A83898363
:100520002091B6113091B71189819A818217930772
:100530007CF02091B6113091B7118091B411909157
:10054000B511280F391F89819A818217930714F0FA
:1005500081E001C080E0882319F080910C020BC07B
:100560008091B6119091B71129813A81A901481B58
:10057000590BCA0105D00F900F90DF91CF910895CC
:10058000CF93DF9300D01F92CDB7DEB79C838B83D0
:100590008B81877089832091AF113091B0118B814D
:1005A0009C81959587959595879595958795820FCB
:1005B000931FFC0180818A838A81882F90E02981A2
:1005C000222F30E0022E02C0959587950A94E2F71B
:1005D00081700F900F900F900F90DF91CF91089541
:1005E000CF93DF931F921F92CDB7DEB78091AD11ED
:1005F0009091AE119A8389838091AF119091B0113F
:100600009093AE118093AD1189819A819093B0112E
:100610008093AF110F900F90DF91CF910895CF93FA
:10062000DF93CDB7DEB78091B4119091B5118138C9
:100630002EE3920714F58091B4119091B51199238E
:10064000E4F08091B6119091B711813020E19207CA
:10065000A4F48091B6119091B711992374F0809110
:10066000B8119091B91181322EE4920734F480913F
:10067000B8119091B911992314F481E001C080E080
:10068000882371F01092B5111092B4111092B71125
:100690001092B6111092B9111092B81180E001C0F9
:1006A00081E0DF91CF910895CF93DF93CDB7DEB78F
:1006B0002C970FB6F894DEBF0FBECDBF9A878987FF
:1006C0007C876B871A8219821C821B822EC0298527
:1006D0003A858B819C81820F931FFC018081282F9A
:1006E00030E089819A81992782279327880F991F63
:1006F0008C519F4F9E838D838D819E81FC0125911E
:100700003491CF0138872F839E838D832F81388545
:1007100089819A81892F9927822793279A838983B0
:100720008B819C8101969C838B838B859C859C010E
:10073000225031098B819C818217930740F28B856F
:100740009C85019729853A85820F931FFC01808142
:10075000882F90E0382F22278B859C85029749852A
:100760005A85840F951FFC018081882F90E0820FAD
:10077000931F29813A81822793279A83898321E0D5
:1007800089819A81009709F020E0822F2C960FB67C
:10079000F894DEBF0FBECDBFDF91CF910895CF9308
:1007A000DF93CDB7DEB7F894C0D1C7D089E097E02A
:1007B0009093C5118093C4118FE492E09093BE1181
:1007C0008093BD118CE692E09093C0118093BF118D
:1007D00005D02AD1A7DD7894C1DDFECFCF93DF937A
:1007E000CDB7DEB789E690E023E0FC0120838AE6FE
:1007F00090E0FC0110828DE390E021E0FC01208379
:10080000DF91CF910895CF93DF93CDB7DEB7F89402
:100810001092C2111092C1117894DF91CF91089576
:100820001F920F9200905F000F92112400905B00C6
:100830000F922F933F934F935F936F937F938F9379
:100840009F93AF93BF93EF93FF93CF93DF93CDB776
:10085000DEB789E091E0FC018081882F90E0817013
:10086000992721E0009709F420E0222309F44EC0E3
:1008700083E290E0FC018081882F90E081709927CD
:1008800021E0009709F420E02223E1F08091C111DA
:100890009091C21101969093C2118093C1119091D1
:1008A000C31181E0992309F080E0882339F0209179
:1008B000BD113091BE1181E0F901199581E080935D
:1008C000C3111AC08091C1119091C21101979093E8
:1008D000C2118093C1119091C31181E0992309F451
:1008E00080E0882339F02091BD113091BE1180E065
:1008F000F90119951092C3112091BF113091C011C7
:100900008091C1119091C211F9011995DF91CF9198
:10091000FF91EF91BF91AF919F918F917F916F91D7
:100920005F914F913F912F910F9000925B000F903C
:1009300000925F000F901F901895CF93DF93CDB773
:10094000DEB784E490E022E0FC01208385E490E0BF
:1009500023E0FC01208387E490E029EFFC01208361
:1009600086E490E0FC0110828EE690E022E0FC013B
:10097000208387E290E027E230E0F90120812062C5
:10098000FC012083DF91CF9108951F920F92009078
:100990005F000F92112400905B000F922F933F9302
:1009A0004F935F936F937F938F939F93AF93BF9377
:1009B000EF93FF93CF93DF931F92CDB7DEB71982EA
:1009C0000FC08981882F90E0880F991F8C539E4E0D
:1009D000FC0180819181FC01199589818F5F898358
:1009E0008981882F90E0880F991F8C539E4EFC01BF
:1009F00080819181009729F70F90DF91CF91FF912E
:100A0000EF91BF91AF919F918F917F916F915F9186
:100A10004F913F912F910F9000925B000F900092A9
:100A20005F000F901F901895CF93DF93CDB7DEB77F
:100A300084E890E0FC011182108288E890E02FEFBA
:100A40003FEFFC013183208380E890E023E8FC0144
:100A5000208381E890E028E1FC0120838FE690E08C
:100A600021E0FC01208384E290E024E230E0F901FF
:100A700020812062FC012083DF91CF910895CF93E4
:100A8000DF931F921F92CDB7DEB79A83898388E8E0
:100A900090E029813A81FC01318320830F900F90EF
:100AA000DF91CF910895CF93DF93CDB7DEB784E880
:100AB00090E0FC011182108281E890E021E830E0B2
:100AC000F90120812260FC012083DF91CF910895FC
:100AD0001F920F9200905F000F92112400905B0014
:100AE0000F922F933F938F939F93EF93FF93CF9307
:100AF000DF93CDB7DEB781E890E021E830E0F9017F
:100B000020812D7FFC012083DF91CF91FF91EF9118
:100B10009F918F913F912F910F9000925B000F90CA
:100B200000925F000F901F901895CF93DF93CDB781
:100B3000DEB71092CE111092F3111092F11140E233
:100B400050E060E070E08FEC91E16FD180EC90E0DC
:100B500022E0FC01208381EC90E028EBFC01208363
:100B600082EC90E026E0FC01208385EC90E0FC0123
:100B7000108284EC90E020E1FC0120838DE290E083
:100B80002DE230E0F90120812260FC012083DF9119
:100B9000CF910895CF93DF93CDB7DEB72091F311B6
:100BA0009091CE1181E0291709F480E0DF91CF9177
:100BB0000895CF93DF93CDB7DEB700002091F311F6
:100BC0009091CE1181E0291709F080E08823B1F7D8
:100BD0008091F311882F90E081539E4EFC0180811B
:100BE000DF91CF910895CF93DF931F92CDB7DEB7FA
:100BF00000002091F3119091CE1181E0291709F0A6
:100C000080E08823B1F78091F311882F90E0815321
:100C10009E4EFC01808189838091F3118F5F8F71DB
:100C20008093F31189810F90DF91CF910895CF9335
:100C3000DF9300D000D0CDB7DEB79C838B837E835B
:100C40006D831A8219821092F21132C01EC08B81FC
:100C50009C819C012F5F3F4F3C832B832091F3119C
:100C6000222F30E021533E4EF9012081FC012083E8
:100C70008091F3118F5F8F718093F31189819A8135
:100C800001969A8389831092F2112091F311909129
:100C9000CE1181E0291709F480E08823C1F69091F4
:100CA000F21181E0943608F480E0882309F007C04F
:100CB00029813A818D819E812817390738F28981EF
:100CC00026960FB6F894DEBF0FBECDBFDF91CF9151
:100CD0000895CF93DF9300D0CDB7DEB79A83898391
:100CE0006B838B81882309F412C000009091F1116D
:100CF00081E0992309F480E08823C1F789819A81F2
:100D00009093F0118093EF118B818093F1110F90EC
:100D10000F900F90DF91CF9108951F920F92009046
:100D20005F000F92112400905B000F922F933F936E
:100D30008F939F93EF93FF93CF93DF93CDB7DEB75E
:100D40008091CE11882F90E026EC30E0F9012081CF
:100D500081539E4EFC0120838091CE118F5F8F7155
:100D60008093CE11DF91CF91FF91EF919F918F9161
:100D70003F912F910F9000925B000F9000925F00C7
:100D80000F901F9018951F920F9200905F000F9286
:100D9000112400905B000F922F933F934F935F932A
:100DA0008F939F93EF93FF93CF93DF93CDB7DEB7EE
:100DB0009091F11181E019160CF080E08823B1F0D8
:100DC00026EC30E08091EF119091F011AC014F5F73
:100DD0005F4F5093F0114093EF11FC018081F901B6
:100DE00080838091F11181508093F111DF91CF9137
:100DF000FF91EF919F918F915F914F913F912F9133
:100E00000F9000925B000F9000925F000F901F9078
:100E10001895CF93DF93CDB7DEB78091F2118F5F36
:100E20008093F211DF91CF910895DC0101C06D93A1
:0C0E300041505040E0F70895F894FFCFC7
:0C0E3C00040208024E414B0041434B00F1
:00000001FF
