:1000000071C1000084C200008CC100008AC10000E0
:1000100088C1000086C1000084C1000082C10000C8
:1000200080C100007EC100007CC100007AC10000D8
:1000300078C1000076C1000074C1000072C10000E8
:1000400070C100006EC100006CC100006AC10000F8
:10005000E2C200009DC2000064C1000062C1000055
:1000600060C1000078C3000097C300005AC10000BF
:1000700058C1000056C1000054C1000052C1000028
:1000800050C100004EC100004CC100004AC1000038
:1000900048C1000046C1000044C1000042C1000048
:1000A00040C100003EC100003CC100003AC1000058
:1000B00038C1000036C1000034C1000032C1000068
:1000C00030C100002EC100002CC100002AC1000078
:1000D00028C1000026C1000024C1000022C1000088
:1000E00020C100000000C1C081C1400101C3C003A4
:1000F000800241C201C6C006800741C70005C1C5D4
:1001000081C4400401CCC00C800D41CD000FC1CF93
:1001100081CE400E000AC1CA81CB400B01C9C00983
:10012000800841C801D8C018801941D9001BC1DB23
:1001300081DA401A001EC1DE81DF401F01DDC01DD3
:10014000801C41DC0014C1D481D5401501D7C017F3
:10015000801641D601D2C012801341D30011C1D103
:1001600081D0401001F0C030803141F10033C1F343
:1001700081F240320036C1F681F7403701F5C035D3
:10018000803441F4003CC1FC81FD403D01FFC03F93
:10019000803E41FE01FAC03A803B41FB0039C1F983
:1001A00081F840380028C1E881E9402901EBC02BE3
:1001B000802A41EA01EEC02E802F41EF002DC1EDD3
:1001C00081EC402C01E4C024802541E50027C1E7F3
:1001D00081E640260022C1E281E3402301E1C02103
:1001E000802041E001A0C060806141A10063C1A303
:1001F00081A240620066C1A681A7406701A5C065D3
:10020000806441A4006CC1AC81AD406D01AFC06F92
:10021000806E41AE01AAC06A806B41AB0069C1A982
:1002200081A840680078C1B881B9407901BBC07B22
:10023000807A41BA01BEC07E807F41BF007DC1BDD2
:1002400081BC407C01B4C074807541B50077C1B7F2
:1002500081B640760072C1B281B3407301B1C07102
:10026000807041B00050C190819140510193C053C2
:10027000805241920196C056805741970055C195D2
:1002800081944054019CC05C805D419D005FC19F92
:10029000819E405E005AC19A819B405B0199C05982
:1002A000805841980188C04880494189004BC18BE2
:1002B000818A404A004EC18E818F404F018DC04DD2
:1002C000804C418C0044C184818540450187C047F2
:1002D000804641860182C042804341830041C18102
:1002E0008180404011241FBECFEFD1E2DEBFCDBFE1
:1002F00000E00CBF12E0A0E0B2E0E6E1F8E000E0D0
:100300000BBF02C007900D92A830B107D9F712E1D8
:10031000A8E0B2E001C01D92A43CB107E1F772D29F
:1003200078C26ECE8AE192E0909317028093160213
:10033000EAEEF9E0F0931502E093140280ED97E005
:10034000DF019C011D9221503040E1F7089580911A
:100350000A0290910B0281389E4380F480910C0236
:1003600090910D028130904148F480910E0290915D
:100370000F0281329E4410F481E0089510920B0226
:1003800010920A0210920D0210920C0210920F02AB
:1003900010920E0280E008957CD1811101C0089571
:1003A00081D18334B9F08C34A1F46091180270913A
:1003B000190280911602909117028ED12091180295
:1003C000309119028217930771F163E084E092E0A3
:1003D000A9C173C16BE070E088E092E07DD10B971A
:1003E000A1F780910902863481F76BE070E088E024
:1003F00092E03AD0882349F3AADF882331F3809131
:100400000A0290910B020796959587959595879589
:10041000959587950496909319028093180263E04E
:1004200080E092E07FC1E0911602F09117022181F5
:100430002E3459F6BC01CF0117D0882309F4C5CF5B
:1004400080911602909117022091140230911502AA
:100450003093170220931602909315028093140292
:1004600063E080E092E05EC10F931F93CF93DF9330
:100470008B01025011090115110581F1DC0140E0E9
:1004800050E020E030E0CD91F901FF27EC27EE0F9E
:10049000FF1FEC51FF4FC591D491232F33272C27F9
:1004A0003D274F5F5F4F4017510768F3FC01E60F90
:1004B000F71F3197408150E0542F4427FC01E00F93
:1004C000F11F8081480F511D81E02417350709F085
:1004D00080E0DF91CF911F910F91089520E030E0EF
:1004E000E5CF83E08093690010926A0081E08DBBC4
:1004F0000895F8941092BD111092BC11789408954B
:10050000F8948091BC119091BD11789408951F9238
:100510000F920FB60F9211248F939F938091090130
:1005200080FF0FC0189914C08091BC119091BD112B
:1005300001979093BD118093BC118091BB111092D3
:10054000BB119F918F910F900FBE0F901F90189528
:100550008091BC119091BD1101969093BD11809333
:10056000BC118091BB1181E08093BB119F918F9151
:100570000F900FBE0F901F90189582E084BD93E0FE
:1005800095BD99EF97BD16BC80936E003D9A089576
:100590001F920F920FB60F9211248F939F9388B1E1
:1005A00090E2892788B98091BE118F5F8093BE1138
:1005B0009F918F910F900FBE0F901F9018951092E2
:1005C0008500109284008FEF9FEF909389008093B5
:1005D000880083E88093800088E18093810081E037
:1005E00080936F002D98259A0895909389008093A9
:1005F00088000895F8941092850010928400E0E835
:10060000F0E0808180688083E1E8F0E080818260B2
:100610008083789408951F920F920FB60F92112441
:100620000BB60F928F93EF93FF93E0E8F0E0808199
:100630008F778083E1E8F0E080818D7F8083FF9178
:10064000EF918F910F900BBE0F900FBE0F901F90E8
:1006500018951092C3121092BF111092C01180E031
:1006600091E0E3ECF1E1DF019C011D92215030406B
:10067000E1F782E08093C00088EB8093C10086E0C0
:100680008093C2001092C50080E18093C400699AF3
:1006900008959091C31281E02091BF11291308950C
:1006A00080E00895E091BF118091C3128E17E1F3AD
:1006B000F0E0ED53FE4E808108959091BF1180913E
:1006C000C3128917E1F3E92FF0E0ED53FE4E80816C
:1006D0009F5F9093BF110895DC011092BE1180E0DE
:1006E00090E061157105E1F0E091BF1111C0F0E0FB
:1006F000ED53FE4E20812C93E091BF11EF5FE0930C
:10070000BF1101961092BE1111968617970748F4F3
:100710002091C312E213EBCF2091BE112639A8F32A
:1007200008950895662379F02091C0112111FCCF1E
:100730009093C2118093C1116093C0118091C10048
:1007400080628093C10008959091C01181E0911161
:1007500001C080E008951F920F920FB60F921124EE
:100760000BB60F928F93EF93FF93E091C31280919A
:10077000C600F0E0ED53FE4E80838091C3128F5F80
:100780008093C312FF91EF918F910F900BBE0F904A
:100790000FBE0F901F9018951F920F920FB60F92D9
:1007A00011240BB60F928F939F93EF93FF93809139
:1007B000C0111816ECF4E091C111F091C211CF01F3
:1007C00001969093C2118093C11180818093C600DD
:1007D0008091C01181508093C011FF91EF919F9142
:1007E0008F910F900BBE0F900FBE0F901F9018951A
:1007F0008091C1008F7D8093C100EFCF88EB809303
:10080000C1000895F89425DFB8DE8CDD7894C4DD4E
:06081000FECFF894FFCFBB
:0808160041434B004E414B0031
:00000001FF
